:02000000312CA1
:10000800FF00030E8301CC000A08CD008A017008A6
:10001800AE007108AD007208AC007308AB0074083C
:10002800AA007508A9007608A8007708A70078082C
:10003800A6007908A5007A08A4007B08A3007C081C
:10004800A2007D08A1000408AF000B1DED280B11CC
:10005800861954283808013A031D54280230B8007C
:100068000610861006118701E830F4000330F50009
:10007800F601F7014408F0004508F1004608F200CF
:100088004708F3007A227008BE007108BF00861581
:100098007008D4007108D500F72370088700ED2890
:1000A80006198A283808023A031D8A280330B8003E
:1000B8000610861086118701E830F4000330F50039
:1000C800F601F7014408F0004508F1004608F2007F
:1000D8004708F3007A227808F0007908F1007A08D6
:1000E800F2007B08F3006430F400F501F601F70133
:1000F8007A227008BC007108BD0006157008D4008B
:100108007108D500F72370088700ED288618BF28E6
:100118003808033A031DBF280430B800061006113A
:10012800861187016430F400F501F601F7014408EF
:10013800F0004508F1004608F2004708F3007A226B
:100148007808F0007908F1007A08F2007B08F300DB
:100158000A30F400F501F601F7017A227008C200AE
:100168007108C30086147008D4007108D500F723FD
:1001780070088700ED280618ED283808043A031D92
:10018800ED280130B80086100611861187010A3063
:10019800F400F501F601F7014408F0004508F10004
:1001A8004608F2004708F3007A227808F000790838
:1001B800F1007A08F2007B08F3007008C0007108AB
:1001C800C10006147008D4007108D500F723700820
:1001D80087002E08F0002D08F1002C08F2002B08EB
:1001E800F3002A08F4002908F5002808F600270873
:1001F800F7002608F8002508F9002408FA00230863
:10020800FB002208FC002108FD002F0884004D088F
:0C0218008A004C0E8300FF0E7F0E0900D0
:100224007408F8027508031C750FF9027608031C9C
:10023400760FFA027708031C770FFB02F30D0730E1
:10024400FC00730DF80DF90DFA0DFB0D7408731C09
:100254003929F8027508031C750FF9027608031C86
:10026400760FFA027708031C770FFB024629F8077A
:1002740075080318750FF90776080318760FFA073F
:1002840077080318770FFB07F30DFC0B2329720D76
:10029400F80DF90DFA0DFB0D7408731C5F29F802B3
:1002A4007508031C750FF9027608031C760FFA0211
:1002B4007708031C770FFB026C29F80775080318ED
:1002C400750FF90776080318760FFA0777080318ED
:1002D400770FFB07F20D0730FC00720DF80DF90DD6
:1002E400FA0DFB0D7408721C8529F8027508031CAD
:1002F400750FF9027608031C760FFA027708031CBF
:10030400770FFB029229F80775080318750FF90790
:1003140076080318760FFA0777080318770FFB0798
:10032400F20DFC0B6F29710DF80DF90DFA0DFB0D93
:100334007408721CAB29F8027508031C750FF902C6
:100344007608031C760FFA027708031C770FFB026A
:10035400B829F80775080318750FF9077608031804
:10036400760FFA0777080318770FFB07F10D0730AC
:10037400FC00710DF80DF90DFA0DFB0D7408711CDC
:10038400D129F8027508031C750FF9027608031CBD
:10039400760FFA027708031C770FFB02DE29F807B1
:1003A40075080318750FF90776080318760FFA070E
:1003B40077080318770FFB07F10DFC0BBB29700DB1
:1003C400F80DF90DFA0DFB0D7408711CF729F802EC
:1003D4007508031C750FF9027608031C760FFA02E0
:1003E4007708031C770FFB02042AF8077508031823
:1003F400750FF90776080318760FFA0777080318BC
:10040400770FFB07F00D0730FC00700DF80DF90DA8
:10041400FA0DFB0D7408701C1D2AF8027508031CE4
:10042400750FF9027608031C760FFA027708031C8D
:10043400770FFB022A2AF80775080318750FF907C6
:1004440076080318760FFA0777080318770FFB0767
:10045400F00DFC0B072A70183D2A7408F80775087C
:100464000318750FF90776080318760FFA0777084B
:080474000318770FFB070800D5
:10047C00FB09FA09F909F809F80A0319F90A031929
:08048C00FA0A0319FB0A08003B
:100494000E3083120313FD00FD0B4E2A00000800EA
:1004A400831203139F01C0309F043909F0007008C0
:1004B40083169F051F179F1783125308F000F00D32
:1004C4007010F00D7010F00D701070089F041F1460
:1004D4004A221F151F1D702A00006C2A1F101E08B7
:1004E400F100F00183161E08F0040030F104080046
:1004F400831203137408003A031D952A7508003A01
:10050400031D952A7608003A031D952A7708003AB8
:10051400031D952AFF30F000FF30F100FF30F20098
:100524007F30F3002E2B83120313FC01F71BFC0A0C
:10053400FD01FB01FA01F901F80173087204710469
:1005440070040319292B73087706A000A01BFD096A
:10055400F71FB72AF409F509F609F709F40A03198C
:10056400F50A0319F60A0319F70AF31FC42AF00956
:10057400F109F209F309F00A0319F10A0319F20A5D
:100584000319F30A73087704A000A01BE52A1221BB
:10059400FC1B022BFD1F292BF009F109F209F309B9
:1005A400F00A0319F10A0319F20A0319F30AF80904
:1005B400F909FA09FB09F80A0319F90A0319FA0AED
:1005C4000319FB0A292BF71FFC2AF31BF62A7308CD
:1005D400FB007208FA007108F9007008F800F301D2
:1005E400F201F101F001CC2AF301F201F101F00171
:1005F400F00A0034F309F209F109F009FC17C92AD9
:10060400F80A0319F90A0319FA0A0319FB0A740808
:100614007802031DCC2A75087902031DCC2A7608BA
:100624007A02031DCC2A77087B02031DCC2AFB0126
:10063400FA01F901F801F00A0319F10A0319F20A9F
:100644000319F30AF31FCC2AA0012016FF34A001DA
:0A0654007C1C2D2B3E22003E080006
:10065E0083120313CF01D001D101D201CE01643038
:10066E004E020318582BD30152220030F200F30031
:10067E0083124F08F00750080318500FF107510866
:10068E000318510FF20752080318520FF3077008A0
:10069E00CF007108D0007208D1007308D200CE0AC4
:1006AE00362B6430F400F501F601F7014F08F00027
:1006BE005008F1005108F2005208F3007A220800A7
:0E06CE00831203133B088A003A0882000800DA
:1006DC00831203132230FC00F801F901FA01FB012B
:1006EC00FC030319A42B0310FB0CFA0CF90CF80CEB
:1006FC00F30CF20CF10CF00C031C762BFC0303191D
:10070C00962B7408F80775080318750FF907760807
:10071C000318760FFA0777080318770FFB077A2B65
:10072C007408F80775080318750FF907760803188D
:0E073C00760FFA0777080318770FFB070800FF
:10074A00831203133008B4003108B5003208B6002A
:10075A003308B7002F237008B0007108B10072087F
:10076A00B2007308B300B730F400F501F601F701DF
:10077A006E232530F400F501F601F7017A2270089C
:10078A00C8007108C9007208CA007308CB00E830B3
:10079A00F4000330F500F601F7016E237008C80073
:1007AA007108C9007208CA007308CB001030F4003F
:1007BA002730F500F601F7017A227008C4007108A3
:0C07CA00C5007208C6007308C7000800D4
:1007D60067238A110A128000840ABA0A0319BB0A1F
:0807E600F003031DEB2B0800DA
:1007EE003F3083120313D6000030D7000630D800F6
:1007FE000030D9005B30DA000030DB004F30DC0017
:10080E000030DD006630DE000030DF006D30E000CD
:10081E000030E1007D30E2000030E3000730E400FC
:10082E000030E5007F30E6000030E7006730E8007A
:10083E000030E9005408F0005508F100F00DF10DFC
:10084E0070107008563E84000008F000840A0008FC
:04085E00F10008009D
:1008620064240130831203139F000E3083169F000D
:1008720007309C00A0308B0083308100F03086006E
:100882008701F030831286008701A5230330FB0025
:100892000830FC007730FD00FD0B4D2CFC0B4D2C7D
:0808A200FB0B4D2C462C542CDD
:1008C800303084000A3083120313F0005A30BA0023
:0808D8000430BB00EB23080013
:0808B40000340034003400346C
:0808BC00003400340034003464
:0208C4000134FD
:0208C6000F34ED
:02400E004A2F37
:00000001FF
