:020000004E2A86
:10000800DF00030E8301A5000A08A6008A010B1D64
:1000180045280B114C30A300FF30A4008030D000DD
:10002800803024065002031D1B282308B43C031CFF
:1000380045282308D0002408D100D1214D30D40010
:10004800F330D5000E30D6007930D700CE202F21DE
:100058005008A7005108A800EF21D1210030D40092
:100068000030D5007F30D6008530D700CE208E21D5
:1000780050184028051041280514A30A0319A40A9A
:10008800122826088A00250E8300DF0E5F0E09005D
:08009800DA1FD213003008004A
:1000A0005B15DB1F5A280130D300D201D101D001EA
:0800B000DA0DD20CFF3008004C
:0E00B800D201D101D001D801D30100300800DF
:1000C600A0015208031D78285108D2005008D1001B
:1000D600D001A0155208031D78285108D200D1017D
:1000E600A01120165208031986282008D302031DE2
:1000F600031C8A280310D21B8E28D00DD10DD20DD9
:10010600D30B7E288A280130DC005C20912802303F
:0E011600DC00502091280430DC004C20080052
:100124005B14DB1F9D28D201DA1FFF30D200D100FF
:0A013400D000DA0DD20CFF300800F5
:10013E0083120313D801D9011030DC00510DD80DF4
:10014E00D90D5408D8025508031C550FD9020318AF
:10015E00B7285408D80755080318550FD9070310A8
:0A016E00D00DD10DDC0BA528080010
:0C017800831222088A002108820008007F
:10018400DB14DB1FCC28FF30D300D200D100D00019
:08019400DA0DD20CFF30080067
:10019C0083120313DB015308031D57080319252988
:1001AC0052085606DA005708D3077E30031CE228A3
:1001BC00D30203182829E528D302031C2B29520843
:1001CC00D8005108DC005008DD00D817D6170310F2
:1001DC00D201D101D0011830A0005D1CFF285408B9
:1001EC00D00755080318550FD10756080318560F9A
:1001FC00D207D20CD10CD00CD80CDC0CDD0C0310BB
:10020C00A00BF328D21B0F29D80DD00DD10DD20D78
:10021C00D3035B1B501C2129D81F2129D00A031999
:10022C00D10A0319D20A031D2129D20CD10CD00CEE
:10023C00D30A03192829DA1FD21300302D290130D3
:10024C005C202D290230C2202D29043050200000C2
:02025C00080098
:10025E0083120313DB01DC01DA01530803196E2943
:10026E00D2178E30D302D31B3F2903193F29712990
:10027E00D309D30A08305302031C5429D300D10DDD
:10028E005208D100D20108305302031C5429D10D5B
:10029E00D1015308031D03105C29530803195C296F
:1002AE000310D20CD10CD30B57295B1B511C6629A2
:1002BE00031C6629D10A0319D20AD21B7D29DA1F23
:1002CE008029D209D109D10A0319D20A8029D20173
:1002DE00D10180295B14DB1F8329D201DA1F832908
:1002EE00FF30D200D100DA0DD20C83290130DC00B0
:1002FE0085290030DC008529FF30DC00DC0803197D
:0E030E00892992205108D0005208D100080021
:10031C0083120313DB01DC01DA0153080319BB2937
:10032C00DA13D2178630D302D31B9F2903199F29C6
:10033C00BD29D309D30A08305302031CAC29D300BE
:10034C00D20DD2015308031D0310B329530803190E
:10035C00B3290310D20CD30BAF295B1B521CBB2946
:10036C00031CBB29D20A0319C229D101C5295B146C
:10037C00DB1FC829D101C8290130DC00CA29003093
:10038C00DC00CA29FF30DC00DC080319CE299220DE
:06039C005208D000080029
:1003A200831203135008D8005108D000D101D201A2
:1003B200D301DB01DC019630D300DA01D01FE7293B
:1003C200D809D009D80A0319D00ADA175008D1007F
:0C03D2005808D000D801D20163200800B8
:1003DE0068308312D4000130D5002708D0002808D9
:1003EE00D1009F205808D0005908D1005008A7000E
:1003FE005108A8005108003C031D072A5008B43CC0
:10040E000318102A0130A900B430A702031CA80358
:10041E00112AA9012808003C031D172A27085A3C57
:10042E000318212A2708B43CA7002808031C013E04
:10043E00A801A8022708D0002808D100D00DD10DA0
:10044E0050105D30D00702300318013ED10750081E
:10045E00A1005108A200BC208A110A12AA00A10A0A
:10046E000319A20ABC208A110A12AB00290803192B
:10047E00492A2A08003CD0002B08031C013ED1015A
:0E048E00D1024D2A2A08D0002B08D100080008
:10049C000730831299009F0183169F0185018030DC
:0E04AC008100643083128100A0308B005C2A36
:1004BA00003400341134003423340034343400342A
:1004CA004634003457340034683400347A34003403
:1004DA008B3400349C340034AE340034BF340034DE
:1004EA00D0340034E1340034F234003403340134BB
:1004FA00143401342434013435340134453401349C
:10050A005634013466340134763401348734013484
:10051A0097340134A6340134B6340134C634013474
:10052A00D5340134E5340134F4340134033402346B
:10053A0012340234203402342F3402343D3402346B
:10054A004C3402345A340234673402347534023477
:10055A0083340234903402349D340234AA3402348F
:10056A00B6340234C3340234CF340234DB340234B6
:10057A00E7340234F2340234FE34023409340334E8
:10058A00143403341E340334293403343334033427
:10059A003D34033446340334503403345934033479
:1005AA00623403346A340334733403347B340334DB
:1005BA00833403348A34033491340334983403344F
:1005CA009F340334A5340334AB340334B1340334D5
:1005DA00B7340334BC340334C1340334C63403346B
:1005EA00CA340334CE340334D2340334D534033416
:1005FA00D9340334DC340334DE340334E0340334D2
:10060A00E2340334E4340334E6340334E7340334A1
:0C061A00E7340334E8340334E8340334DC
:02400E00F2318D
:00000001FF
