:02000000132BC0
:10000800DF00030E8301A5000A08A6008A010B1D64
:100018000F280B11D12226088A00250E8300DF0E37
:040028005F0E09005E
:0E002C00D201D101D001D801D301003008006B
:08003A00DA1FD21300300800A8
:100042005B15DB1F2B280130D300D201D101D00177
:08005200DA0DD20CFF300800AA
:10005A0083120313D801D9011030DC00510DD80DD9
:10006A00D90D5408D8025508031C550FD902031894
:10007A0045285408D80755080318550FD9070310FF
:0A008A00D00DD10DDC0B3328080067
:0C009400831222088A0021088200080064
:1000A000A0015208031D65285108D2005008D10054
:1000B000D001A0155208031D65285108D200D101B6
:1000C000A01120165208031973282008D302031D1B
:1000D000031C77280310D21B7B28D00DD10DD20D25
:1000E000D30B6B2877280130DC0016207E280230E5
:0E00F000DC0021207E280430DC001D200800EA
:0600FE00DB15FF300800D5
:10010400DB14DB1F8C28FF30D300D200D100D000D9
:08011400DA0DD20CFF300800E7
:10011C005B14DB1F9928D201DA1FFF30D200D1000B
:0A012C00D000DA0DD20CFF300800FD
:1001360083120313DB015308031D57080319F22822
:1001460052085606DA005708D3077E30031CAF283C
:10015600D3020318F528B228D302031CF828520844
:10016600D8005108DC005008DD00D817D617031058
:10017600D201D101D0011830A0005D1CCC28540852
:10018600D00755080318550FD10756080318560F00
:10019600D207D20CD10CD00CD80CDC0CDD0C031021
:1001A600A00BC028D21BDC28D80DD00DD10DD20D46
:1001B600D3035B1B501CEE28D81FEE28D00A031968
:1001C600D10A0319D20A031DEE28D20CD10CD00C89
:1001D600D30A0319F528DA1FD2130030FA280130A2
:1001E6001620FA2802308220FA2804302120000046
:0201F6000800FF
:1001F80068308312D4000130D5002708D0002808C1
:10020800D1002D205808D0005908D1005008A70067
:100218005108A8005108003C031D14295008B43C9B
:1002280003181D290130A900B430A702031CA80334
:100238001E29A9012808003C031D242927085A3C27
:1002480003182E292708B43CA7002808031C013EE0
:10025800A801A8022708D0002808D100D00DD10D88
:1002680050102230D00703300318013ED107500840
:10027800A1005108A2004A208A110A12AA00A10A64
:100288000319A20A4A208A110A12AB002908031985
:1002980056292A08003CD0002B08031C013ED10136
:0E02A800D1025A292A08D0002B08D1000800E4
:1002B60083125408003A031D75295508003A031D98
:1002C60075295608003A031D75295708003A031D7B
:1002D6007529FF30D000FF30D1007F30D200FF30CB
:1002E600D300102A8312031357080319042A53084C
:1002F6000319072A520856068039DA00D217D6178C
:10030600A0015208D8005108DC005008DD0054084E
:10031600DD025508031C550FDC025608031C560F58
:10032600D802D801DC01DD01031CA0290310D20C80
:10033600D10CD00CD80C0130A0005708D302031CF6
:10034600AA297E302007D30703180A2AAF297E3050
:100356002007D307031C0D2A1830DA07DD0DDC0D44
:10036600D80DD00DD10DD20DA00D5408D0025508D0
:10037600031C550FD1025608031C560FD202560D08
:10038600A004201CC8295D14D3295408D007550899
:100396000318550FD10756080318560AD2075D10E1
:1003A600DA031F305A05031DB1295B1B5D1CFA29B0
:1003B6000310D00DD10DD20DA00D5408D002550852
:1003C600031C550FD1025608031C560FD202560DB8
:1003D60020040139DD070318DC0A0319D80A031DB6
:1003E600FA29D80CDC0CDD0CD30A03190A2ADA1F09
:1003F600D8135808D2005C08D1005D08D000003040
:100406000F2A01307F200F2A023016200F2A0430CF
:0C04160082200F2A08302120000008007E
:1004220083120313DB01DC01DA0153080319502A9A
:10043200D2178E30D302D31B212A0319212A532A21
:10044200D309D30A08305302031C362AD300D10D34
:100452005208D100D20108305302031C362AD10DB2
:10046200D1015308031D03103E2A530803193E2AE3
:100472000310D20CD10CD30B392A5B1B511C482A16
:10048200031C482AD10A0319D20AD21B5F2ADA1F97
:10049200622AD209D109D10A0319D20A622AD201E7
:1004A200D101622A5B14DB1F652AD201DA1F652A99
:1004B200FF30D200D100DA0DD20C652A0130DC0007
:1004C200672A0030DC00672AFF30DC00DC080319F1
:0E04D2006B2A8E205108D0005208D10008007D
:1004E00083120313DB01DC01DA01530803199D2A8F
:1004F000DA13D2178630D302D31B812A0319812A3B
:100500009F2AD309D30A08305302031C8E2AD30032
:10051000D20DD2015308031D0310952A5308031965
:10052000952A0310D20CD30B912A5B1B521C9D2AD7
:10053000031C9D2AD20A0319A42AD101A72A5B14FD
:10054000DB1FAA2AD101AA2A0130DC00AC2A003024
:10055000DC00AC2AFF30DC00DC080319B02A8E2056
:060560005208D000080063
:10056600831203135008D8005108D000D101D201DC
:10057600D301DB01DC019630D300DA01D01FC92A92
:10058600D809D009D80A0319D00ADA175008D100B9
:0C0596005808D000D801D2015020080005
:1005A2004C308312A300FF30A4008030D000803092
:1005B20024065002031DDF2A2308B43C031C122B1D
:1005C2002308D0002408D100B3225630D4000E30C4
:1005D200D5004930D6008030D7009B200030D400AF
:1005E2000030D5003430D6008630D7005B2111228E
:1005F2005008A7005108A800FC20B3220030D40004
:100602000030D5007F30D6008530D7009B20702285
:1006120050180D2B05100E2B0514A30A0319A40A5A
:04062200D62A0800CC
:100626000730831299009F0183169F018501803050
:0E0636008100643083128100A0308B00212BE4
:10064400003400341134003423340034343400349E
:100654004634003457340034683400347A34003477
:100664008B3400349C340034AE340034BF34003452
:10067400D0340034E1340034F2340034033401342F
:100684001434013424340134353401344534013410
:1006940056340134663401347634013487340134F9
:1006A40097340134A6340134B6340134C6340134E9
:1006B400D5340134E5340134F434013403340234E0
:1006C40012340234203402342F3402343D340234E0
:1006D4004C3402345A3402346734023475340234EC
:1006E40083340234903402349D340234AA34023404
:1006F400B6340234C3340234CF340234DB3402342B
:10070400E7340234F2340234FE340234093403345C
:10071400143403341E34033429340334333403349B
:100724003D340334463403345034033459340334ED
:10073400623403346A340334733403347B3403344F
:10074400833403348A3403349134033498340334C3
:100754009F340334A5340334AB340334B134033449
:10076400B7340334BC340334C1340334C6340334DF
:10077400CA340334CE340334D2340334D53403348A
:10078400D9340334DC340334DE340334E034033446
:10079400E2340334E4340334E6340334E734033416
:0C07A400E7340334E8340334E834033451
:02400E00F2318D
:00000001FF
