:04000000CAEF04F04F
:0E0008009EA204D0827416C0BEFF9E9211000C
:080016000AAE029E000E12006A
:10001E000B820BAE19EF00F00368026801680068EE
:08002E000A360232FF0E120037
:0E003600026A016A006A086A036A000E12007C
:100044000B840BAE2DEF00F0010E036E026A016A01
:0A005400006A0A360232FF0E1200A5
:10005E000B800BAE3BEF00F0026A0AAEFF0E026E93
:0C006E00016E006E0A360232FF0E120016
:0A007A00070E0D6E0D2EFED71200CA
:100084000C6A0E6A0250D8A45BEF00F001C002F0C3
:1000940000C001F0006A0E860250D8A45BEF00F0A5
:1000A40001C002F0016A0E960E880250D8B46DEFBA
:1000B40000F00E50035ED8A4D8A072EF00F0D890E0
:1000C40002BE77EF00F0003601360236032E62EFEF
:1000D40000F072EF00F0010E0C6EABDF7AEF00F06F
:1000E400020E0C6EADDF7AEF00F0040E0C6E91DFA1
:0200F4001200F8
:1000F6000CB0BDEF00F00CA263EF01F00E6A000E2B
:100106000264D4EF00F0F00E0214D8A49FEF00F0C2
:10011600023A01380F0B02260138F00B016E003847
:100126000F0B01260038F00B006E08380F0B002667
:100136000838F00B086E0E84D89002BEB8EF00F0B7
:1001460008360036013602360E2A02BEB8EF00F037
:1001560008360036013602360E2A02BEB8EF00F027
:1001660008360036013602360E2A0E50036459EF61
:1001760001F0035E0BBC08AE5EEF01F0D880800E86
:1001860008640030000E002201220222D8A05EEF91
:1001960001F0023201320032034A63EF01F05EEFF2
:1001A60001F001C002F000C001F008C000F0086ACA
:1001B600000E0E8602640BEF01F0F00E0214D8A4B6
:1001C600F3EF00F0023A01380F0B02260138F00B6C
:1001D600016E00380F0B01260038F00B006E0E84FE
:1001E600D89002BEB8EF00F00036013602360E2A6D
:1001F60002BEB8EF00F00036013602360E2A02BE05
:10020600B8EF00F00036013602360E2AB8EF00F0DD
:1002160001C002F000C001F0006A000E0E960E88C2
:10022600026438EF01F0F00E0214D8A423EF01F0B7
:10023600023A01380F0B02260138F00B016E0E84CC
:10024600D89002BEB8EF00F0013602360E2A02BE82
:10025600B8EF00F0013602360E2A02BEB8EF00F003
:10026600013602360E2AB8EF00F001C002F0016A2C
:10027600000E0E86026468EF01F0F00E0214D8A498
:1002860047EF01F0023A0E84D89002BEB8EF00F0B4
:1002960002360E2A02BEB8EF00F002360E2A02BE61
:1002A600B8EF00F002360E2AB8EF00F0010E0C6E21
:1002B600C6DE6BEF01F0020E0C6EAADE6BEF01F0EC
:1002C600040E0C6EA9DE6BEF01F0080E0C6EB0DEAC
:0202D600120014
:1002D800086A096A000E07620364F1EF01F0025030
:1002E80006180A6E075003267E0ED8A082EF01F08A
:1002F800035ED8B0F5EF01F086EF01F0035ED8A0F9
:10030800F9EF01F0028E068E02C00EF001C00BF06C
:1003180000C00DF000500402F4CF0CF001500502AB
:10032800F4CF00F0F3CF08F00402F3500C26F45099
:100338000822000E00220D500502F3500C26F4503E
:100348000822000E002202500402F3500826F4503E
:10035800002202500502016A000E0122F350002615
:10036800F45001220D500602F3500826F4500022E2
:10037800026A000E012202220B500602F3500026E8
:10038800F4500122000E02220E500602F3500126FC
:10039800F450022202BED9EF01F0083600360136C9
:1003A80002360306D8B4F9EF01F0ECEF01F0D8807B
:1003B800800E08640030000E002201220222D8A01C
:1003C800ECEF01F0023201320032034AF5EF01F09E
:1003D8000AAE029E000EFBEF01F0010E28DEFBEFD5
:1003E80001F0020E18DEFBEF01F0040E27DE12000A
:1003F8000B6A0C6A0A6A0350D8B431EF02F00A9EFD
:10040800028E860E035E03BE0FEF02F0D8B40FEF24
:1004180002F034EF02F0036C080E035CD8A01DEF65
:1004280002F0036E0236026A0350D8A4D89026EF71
:1004380002F00350D8B426EF02F0D8900232032E0F
:1004480021EF02F00BBC02A031EF02F0D8A031EF8F
:1004580002F0022AD8B43BEF02F0016A40EF02F042
:100468000B800BAE44EF02F0016A44EF02F0010E7C
:100478000C6EF1DD46EF02F0000E0C6E46EF02F056
:0A048800FF0E0C6E0250006E120011
:100492000050086E0150006E016A026A036A0B6A1C
:1004A2000C6A960E036E0A6A00C001F008C000F0E2
:0804B200086A026AE6DD12008F
:1004BA00025006180E6E086A096A0B6A035007642E
:1004CA0050EF03F006500A6E068E028E03500B6E32
:1004DA000750036E000E0B64A0EF02F00B50075E8C
:1004EA00D8B441EF03F0070E07640FEF03F0075E7D
:1004FA0000C008F001C000F002C001F0026A074E15
:10050A0041EF03F00764E4EF02F0075E00C008F071
:10051A0001C000F0016A074E41EF03F00764C2EF21
:10052A0002F0075E00C008F0006A074E41EF03F0D0
:10053A000764A9EF02F00AC002F005C001F004C086
:10054A0000F0086A6BEF04F0030E0764B4EF02F0E0
:10055A00075E08380F0B086E074E41EF03F0D8907C
:10056A000832074E41EF03F0D8900832074E41EFA8
:10057A0003F0D890083241EF03F0030E0764D3EF7B
:10058A0002F0075E08380F0B086E0038F00B0826D9
:10059A0000380F0B006E074E41EF03F0D89000327F
:1005AA000832074E41EF03F0D89000320832074E66
:1005BA0041EF03F0D8900032083241EF03F0030E06
:1005CA000764FBEF02F0075E08380F0B086E00386D
:1005DA00F00B082600380F0B006E0138F00B0026CE
:1005EA0001380F0B016E074E41EF03F0D89001322C
:1005FA0000320832074E41EF03F0D8900132003240
:10060A000832074E41EF03F0D89001320032083227
:10061A0041EF03F0030E07642CEF03F0075E08387E
:10062A000F0B086E0038F00B082600380F0B006E0F
:10063A000138F00B002601380F0B016E0238F00B5F
:10064A00012602380F0B026E074E41EF03F0D890D5
:10065A000232013200320832074E41EF03F0D890DD
:10066A000232013200320832074E41EF03F0D890CD
:10067A000232013200320832096A000E0EAE35EF3C
:10068A0004F0081E001E011E021E082A0022012272
:10069A00022235EF04F00750D8A456EF03F06BEFAF
:1006AA0004F0096A02C00AF0028E068E0750035C43
:1006BA00076ED8B428EF04F0070E0764F6EF03F0CC
:1006CA00075E0450096E0550046E0650056E066AF0
:1006DA00074E28EF04F0070E0764CBEF03F0075E1E
:1006EA000450096E0550046E056A074E28EF04F09F
:1006FA00070E0764A9EF03F0075E0450096E046A47
:10070A00074E28EF04F0070E076490EF03F00AC0C3
:10071A0002F06BEF04F0030E07649BEF03F0075E31
:10072A0009380F0B096E074E28EF04F0D8900932EA
:10073A00074E28EF04F0D8900932074E28EF04F04C
:10074A00D890093228EF04F0030E0764BAEF03F0D9
:10075A00075E09380F0B096E0438F00B09260438B6
:10076A000F0B046E074E28EF04F0D89004320932BA
:10077A00074E28EF04F0D89004320932074E28EFCA
:10078A0004F0D8900432093228EF04F0030E07640B
:10079A00E2EF03F0075E09380F0B096E0438F00B1D
:1007AA00092604380F0B046E0538F00B04260538A9
:1007BA000F0B056E074E28EF04F0D890053204326D
:1007CA000932074E28EF04F0D89005320432093274
:1007DA00074E28EF04F0D89005320432093228EF88
:1007EA0004F0030E076413EF04F0075E09380F0BD9
:1007FA00096E0438F00B092604380F0B046E05380D
:10080A00F00B042605380F0B056E0638F00B05268B
:10081A0006380F0B066E074E28EF04F0D890063202
:10082A00053204320932074E28EF04F0D890063216
:10083A00053204320932074E28EF04F0D890063206
:10084A00053204320932086A000E0EAE35EF04F0A2
:10085A00091E041E051E061E092A04220522062256
:10086A00095008260450002205500122065002228F
:10087A000EBE4CEF04F0D8A05BEF04F00232013256
:10088A0000320832033E5BEF04F065EF04F0D8B0A3
:10089A0060EF04F0000E081E001E011E021E082A48
:1008AA000022012202220A7E60EF04F0010E0C6E81
:1008BA001DDC6DEF04F0020E0C6E18DC6DEF04F017
:1008CA00040E0C6E0FEC00F06DEF04F0000E0C6ECF
:0208DA0012000A
:1008DC00C26A151C006E0050C116070EC012C08EE5
:1008EC0018C000F000360090003600900050C21284
:1008FC00C2803DEC00F0C282C2A201D0FDD7C4CFB1
:10090C0001F0006AC3500012000E0112C2901200D6
:10091C00186ADEDFB8DD140E046EAE0E056E470EDF
:10092C00066E7E0E076ED2DC000E046E000E056E97
:10093C00080E066E840E076EBADD58DD00C0CBFFC4
:02094C00120097
:10094E00086A096A100E0C6E013408360936045016
:10095E00085E0550D8A0053C095ED8B007D00450FB
:10096E0008260550D8B0053C0926D8900036013629
:06097E000C2EEAD7120066
:100984000900F5CFE6FF0006FBE10106F9E11200DC
:10099400EDEC04F0F28EF28C9D82160ECA6E070EF8
:1009A400B46EBE6A0C0EBD6EFB0E946E010EC26E6A
:1009B4000D0EC16EFF0E926EAFDF010E186E8CDF4E
:1009C400050E046E000E056EC0DF00C016F001C0F7
:0609D40017F0F2D7FFD777
:1009DA0010EE15F0010E006E010E016E060EF66E97
:0E09EA00000EF76E000EF86EC2EC04F0120064
:0100060030C9
:020000040030CA
:0D000100021F1EFF8381FF0FC00FE00F40A4
:00000001FF
