:02000000012AD3
:100006008312031320089300831614180C2800008B
:0A001600072883121308F000080009
:100020000030831203134C06031D182800304B06C2
:10003000031D242800304E06031D202800304D06E5
:10004000031D2428CF01D00100304C06031D2A28AF
:1000500000304B06031D382800304E06031D3228A1
:1000600001304D06031D38280130CF000030D0008C
:1000700000304C06031D3E2801304B06031D4C2862
:1000800000304E06031D462800304D06031D4C2847
:100090000A30CF000030D00000304C06031D52283B
:1000A00001304B06031D602800304E06031D5A2800
:1000B00001304D06031D60280B30CF000030D0000A
:1000C000772807104908A00003204A08A000032051
:1000D0000714872807104908A00003204A08A00039
:1000E0000320A0010320A00103200714872800306B
:1000F0005006031D7D2800304F060319612800308B
:100100005006031D852801304F0603196A28080090
:10011000013083120313C800093048020318A428D1
:100120004808C900CA01CB01CC01CD01CE01102085
:100130004808C900CA01CB01CC010130CD00003014
:0A014000CE001020C80A8C28080029
:0E014A008312031328088A0027088200080089
:10015800A5208A110A128000840AA70A0319A80A8E
:08016800F003031DAC280800A0
:100170000030831203132A06031DC028003029060D
:10018000031DCC2800302C06031DC82800302B0688
:10019000031DCC28AD01AE0100302A06031DD22874
:1001A00000302906031DE02800302C06031DDA2844
:1001B00001302B06031DE0280130AD000030AE00F9
:1001C00000302A06031DE62801302906031DF42805
:1001D00000302C06031DEE2800302B06031DF428EA
:1001E0000A30AD000030AE0000302A06031DFA28A8
:1001F00001302906031D082900302C06031D0229A1
:1002000001302B06031D08290B30AD000030AE0075
:100210006B2907100930A0000320A0010320071458
:1002200007100A30A00003200F30A000032007149D
:1002300007100B30A00003200730A0000320071494
:1002400007100C30A00003200130A0000320071489
:100250000710A0010320FF30A000032007147B2912
:1002600007100930A0000320A0010320A0010320F3
:10027000A0010320071407100A30A00003200F304C
:10028000A0000320A0010320A001032007140710F1
:100290000B30A00003200730A0000320A0010320A2
:1002A000A0010320071407100C30A0000320013028
:1002B000A0000320A0010320A001032007140710C1
:1002C000A0010320FF30A0000320A0010320A00113
:1002D000032007147B2900302E06031D71290030EE
:1002E0002D060319092900302E06031D7929013036
:0802F0002D0603193029080056
:1002F80083120313C4010630440203188529C40A73
:100308007F29C4010830440203188C29C40A8629AD
:1003180033083106031D922930083206031995293E
:10032800C70133083106031D9B2930083206031D17
:100338009F290130C700DC292E082C02C600C50100
:10034800003045020318D729C4014608440203189F
:10035800C02944082C02C9004508343E840000081E
:10036800CA002A08CB002B08CC003008CD00310881
:10037800CE001020C40AA9298230FC00DD30FD001F
:10038800FD0BC429FC0BC429000000008820823022
:10039800FC00DD30FD00FD0BCF29FC0BCF29000050
:1003A8000000C50AA429E4292E082C02C600E42965
:1003B8004708013A0319A0294708003A0319D82920
:0203C80008002B
:1003CA00FF3083120313A100FF30A200FF30A30005
:1003DA00FF300330A4000030A5002030A600003012
:1003EA0083168712871107168312940140308316E9
:0803FA00940083129416080020
:100402008316031305140710E521A901AA01AB0104
:10041200AC01B820A901AA010130AB000030AC0048
:10042200B82088204130A900AA01AB010830AC00F5
:100432000030AD00AE01AF01B001B101B201B301B4
:060442007C21132A232A8D
:100448007F3488348834883488347F34FF34913456
:100458009134913491346E347E34813481348134D2
:1004680081344234FF3481348134813481347E34A0
:100478008134FF3491349134913491348134FF3490
:1004880091349034903480347E348134813489348A
:1004980089344E34FF341034103410341034FF349F
:1004A80000348134FF34FF3481340034063401349D
:1004B8008134FE34803400348134FF349934243458
:1004C800C33481348134FF3481340134013403343A
:1004D800FF346034183418346034FF34FF34603427
:1004E800103408340634FF347E3481348134813446
:1004F80081347E348134FF348934883488347034CC
:100508007E3481348534893487347E34FF3498349A
:1005180098349434933461346234913491349134FE
:1005280091344E34C0348134FF34FF348134C034C4
:10053800FE340134013401340134FE34FC34023415
:10054800013401340234FC34FF34023404340434FA
:100558000234FF34C3342434183418342434C334F4
:10056800C03420341F341F342034C034C33485349D
:0805780089349134A134C3342D
:02400E004A2F37
:00000001FF
